{
  "contractName": "NftSubastable",
  "abi": [
    {
      "inputs": [],
      "stateMutability": "nonpayable",
      "type": "constructor"
    },
    {
      "anonymous": false,
      "inputs": [
        {
          "indexed": true,
          "internalType": "address",
          "name": "owner",
          "type": "address"
        },
        {
          "indexed": true,
          "internalType": "address",
          "name": "approved",
          "type": "address"
        },
        {
          "indexed": true,
          "internalType": "uint256",
          "name": "tokenId",
          "type": "uint256"
        }
      ],
      "name": "Approval",
      "type": "event"
    },
    {
      "anonymous": false,
      "inputs": [
        {
          "indexed": true,
          "internalType": "address",
          "name": "owner",
          "type": "address"
        },
        {
          "indexed": true,
          "internalType": "address",
          "name": "operator",
          "type": "address"
        },
        {
          "indexed": false,
          "internalType": "bool",
          "name": "approved",
          "type": "bool"
        }
      ],
      "name": "ApprovalForAll",
      "type": "event"
    },
    {
      "anonymous": false,
      "inputs": [
        {
          "indexed": true,
          "internalType": "address",
          "name": "from",
          "type": "address"
        },
        {
          "indexed": true,
          "internalType": "address",
          "name": "to",
          "type": "address"
        },
        {
          "indexed": true,
          "internalType": "uint256",
          "name": "tokenId",
          "type": "uint256"
        }
      ],
      "name": "Transfer",
      "type": "event"
    },
    {
      "inputs": [
        {
          "internalType": "address",
          "name": "to",
          "type": "address"
        },
        {
          "internalType": "uint256",
          "name": "tokenId",
          "type": "uint256"
        }
      ],
      "name": "approve",
      "outputs": [],
      "stateMutability": "nonpayable",
      "type": "function"
    },
    {
      "inputs": [
        {
          "internalType": "address",
          "name": "owner",
          "type": "address"
        }
      ],
      "name": "balanceOf",
      "outputs": [
        {
          "internalType": "uint256",
          "name": "",
          "type": "uint256"
        }
      ],
      "stateMutability": "view",
      "type": "function",
      "constant": true
    },
    {
      "inputs": [
        {
          "internalType": "uint256",
          "name": "tokenId",
          "type": "uint256"
        }
      ],
      "name": "getApproved",
      "outputs": [
        {
          "internalType": "address",
          "name": "",
          "type": "address"
        }
      ],
      "stateMutability": "view",
      "type": "function",
      "constant": true
    },
    {
      "inputs": [
        {
          "internalType": "address",
          "name": "owner",
          "type": "address"
        },
        {
          "internalType": "address",
          "name": "operator",
          "type": "address"
        }
      ],
      "name": "isApprovedForAll",
      "outputs": [
        {
          "internalType": "bool",
          "name": "",
          "type": "bool"
        }
      ],
      "stateMutability": "view",
      "type": "function",
      "constant": true
    },
    {
      "inputs": [],
      "name": "name",
      "outputs": [
        {
          "internalType": "string",
          "name": "",
          "type": "string"
        }
      ],
      "stateMutability": "view",
      "type": "function",
      "constant": true
    },
    {
      "inputs": [
        {
          "internalType": "uint256",
          "name": "tokenId",
          "type": "uint256"
        }
      ],
      "name": "ownerOf",
      "outputs": [
        {
          "internalType": "address",
          "name": "",
          "type": "address"
        }
      ],
      "stateMutability": "view",
      "type": "function",
      "constant": true
    },
    {
      "inputs": [
        {
          "internalType": "address",
          "name": "from",
          "type": "address"
        },
        {
          "internalType": "address",
          "name": "to",
          "type": "address"
        },
        {
          "internalType": "uint256",
          "name": "tokenId",
          "type": "uint256"
        }
      ],
      "name": "safeTransferFrom",
      "outputs": [],
      "stateMutability": "nonpayable",
      "type": "function"
    },
    {
      "inputs": [
        {
          "internalType": "address",
          "name": "from",
          "type": "address"
        },
        {
          "internalType": "address",
          "name": "to",
          "type": "address"
        },
        {
          "internalType": "uint256",
          "name": "tokenId",
          "type": "uint256"
        },
        {
          "internalType": "bytes",
          "name": "_data",
          "type": "bytes"
        }
      ],
      "name": "safeTransferFrom",
      "outputs": [],
      "stateMutability": "nonpayable",
      "type": "function"
    },
    {
      "inputs": [
        {
          "internalType": "address",
          "name": "operator",
          "type": "address"
        },
        {
          "internalType": "bool",
          "name": "approved",
          "type": "bool"
        }
      ],
      "name": "setApprovalForAll",
      "outputs": [],
      "stateMutability": "nonpayable",
      "type": "function"
    },
    {
      "inputs": [
        {
          "internalType": "bytes4",
          "name": "interfaceId",
          "type": "bytes4"
        }
      ],
      "name": "supportsInterface",
      "outputs": [
        {
          "internalType": "bool",
          "name": "",
          "type": "bool"
        }
      ],
      "stateMutability": "view",
      "type": "function",
      "constant": true
    },
    {
      "inputs": [],
      "name": "symbol",
      "outputs": [
        {
          "internalType": "string",
          "name": "",
          "type": "string"
        }
      ],
      "stateMutability": "view",
      "type": "function",
      "constant": true
    },
    {
      "inputs": [
        {
          "internalType": "uint256",
          "name": "tokenId",
          "type": "uint256"
        }
      ],
      "name": "tokenURI",
      "outputs": [
        {
          "internalType": "string",
          "name": "",
          "type": "string"
        }
      ],
      "stateMutability": "view",
      "type": "function",
      "constant": true
    },
    {
      "inputs": [
        {
          "internalType": "address",
          "name": "from",
          "type": "address"
        },
        {
          "internalType": "address",
          "name": "to",
          "type": "address"
        },
        {
          "internalType": "uint256",
          "name": "tokenId",
          "type": "uint256"
        }
      ],
      "name": "transferFrom",
      "outputs": [],
      "stateMutability": "nonpayable",
      "type": "function"
    },
    {
      "inputs": [
        {
          "internalType": "address",
          "name": "owner",
          "type": "address"
        },
        {
          "internalType": "string",
          "name": "hash",
          "type": "string"
        },
        {
          "internalType": "string",
          "name": "metadata",
          "type": "string"
        }
      ],
      "name": "CrearNFT",
      "outputs": [
        {
          "internalType": "uint256",
          "name": "",
          "type": "uint256"
        }
      ],
      "stateMutability": "nonpayable",
      "type": "function"
    }
  ],
  "bytecode": "0x60806040523480156200001157600080fd5b506040518060400160405280600d81526020017f4e667453756261737461626c65000000000000000000000000000000000000008152506040518060400160405280600681526020017f4e46545375620000000000000000000000000000000000000000000000000000815250816000908051906020019062000096929190620000b8565b508060019080519060200190620000af929190620000b8565b505050620001cd565b828054620000c69062000197565b90600052602060002090601f016020900481019282620000ea576000855562000136565b82601f106200010557805160ff191683800117855562000136565b8280016001018555821562000136579182015b828111156200013557825182559160200191906001019062000118565b5b50905062000145919062000149565b5090565b5b80821115620001645760008160009055506001016200014a565b5090565b7f4e487b7100000000000000000000000000000000000000000000000000000000600052602260045260246000fd5b60006002820490506001821680620001b057607f821691505b60208210811415620001c757620001c662000168565b5b50919050565b612c5e80620001dd6000396000f3fe608060405234801561001057600080fd5b50600436106100ea5760003560e01c80636352211e1161008c578063a22cb46511610066578063a22cb4651461026f578063b88d4fde1461028b578063c87b56dd146102a7578063e985e9c5146102d7576100ea565b80636352211e146101f157806370a082311461022157806395d89b4114610251576100ea565b8063095ea7b3116100c8578063095ea7b31461016d57806323b872dd14610189578063348de396146101a557806342842e0e146101d5576100ea565b806301ffc9a7146100ef57806306fdde031461011f578063081812fc1461013d575b600080fd5b6101096004803603810190610104919061197a565b610307565b60405161011691906119c2565b60405180910390f35b6101276103e9565b6040516101349190611a76565b60405180910390f35b61015760048036038101906101529190611ace565b61047b565b6040516101649190611b3c565b60405180910390f35b61018760048036038101906101829190611b83565b610500565b005b6101a3600480360381019061019e9190611bc3565b610618565b005b6101bf60048036038101906101ba9190611d4b565b610678565b6040516101cc9190611de5565b60405180910390f35b6101ef60048036038101906101ea9190611bc3565b610725565b005b61020b60048036038101906102069190611ace565b610745565b6040516102189190611b3c565b60405180910390f35b61023b60048036038101906102369190611e00565b6107f7565b6040516102489190611de5565b60405180910390f35b6102596108af565b6040516102669190611a76565b60405180910390f35b61028960048036038101906102849190611e59565b610941565b005b6102a560048036038101906102a09190611f3a565b610ac2565b005b6102c160048036038101906102bc9190611ace565b610b24565b6040516102ce9190611a76565b60405180910390f35b6102f160048036038101906102ec9190611fbd565b610c76565b6040516102fe91906119c2565b60405180910390f35b60007f80ac58cd000000000000000000000000000000000000000000000000000000007bffffffffffffffffffffffffffffffffffffffffffffffffffffffff1916827bffffffffffffffffffffffffffffffffffffffffffffffffffffffff191614806103d257507f5b5e139f000000000000000000000000000000000000000000000000000000007bffffffffffffffffffffffffffffffffffffffffffffffffffffffff1916827bffffffffffffffffffffffffffffffffffffffffffffffffffffffff1916145b806103e257506103e182610d0a565b5b9050919050565b6060600080546103f89061202c565b80601f01602080910402602001604051908101604052809291908181526020018280546104249061202c565b80156104715780601f1061044657610100808354040283529160200191610471565b820191906000526020600020905b81548152906001019060200180831161045457829003601f168201915b5050505050905090565b600061048682610d74565b6104c5576040517f08c379a00000000000000000000000000000000000000000000000000000000081526004016104bc906120d0565b60405180910390fd5b6004600083815260200190815260200160002060009054906101000a900473ffffffffffffffffffffffffffffffffffffffff169050919050565b600061050b82610745565b90508073ffffffffffffffffffffffffffffffffffffffff168373ffffffffffffffffffffffffffffffffffffffff16141561057c576040517f08c379a000000000000000000000000000000000000000000000000000000000815260040161057390612162565b60405180910390fd5b8073ffffffffffffffffffffffffffffffffffffffff1661059b610de0565b73ffffffffffffffffffffffffffffffffffffffff1614806105ca57506105c9816105c4610de0565b610c76565b5b610609576040517f08c379a0000000000000000000000000000000000000000000000000000000008152600401610600906121f4565b60405180910390fd5b6106138383610de8565b505050565b610629610623610de0565b82610ea1565b610668576040517f08c379a000000000000000000000000000000000000000000000000000000000815260040161065f90612286565b60405180910390fd5b610673838383610f7f565b505050565b6000600160088460405161068c91906122e2565b908152602001604051809103902060009054906101000a900460ff1660ff1614156106b657600080fd5b60016008846040516106c891906122e2565b908152602001604051809103902060006101000a81548160ff021916908360ff1602179055506106f860076111db565b600061070460076111f1565b905061071085826111ff565b61071a81846113cd565b809150509392505050565b61074083838360405180602001604052806000815250610ac2565b505050565b6000806002600084815260200190815260200160002060009054906101000a900473ffffffffffffffffffffffffffffffffffffffff169050600073ffffffffffffffffffffffffffffffffffffffff168173ffffffffffffffffffffffffffffffffffffffff1614156107ee576040517f08c379a00000000000000000000000000000000000000000000000000000000081526004016107e59061236b565b60405180910390fd5b80915050919050565b60008073ffffffffffffffffffffffffffffffffffffffff168273ffffffffffffffffffffffffffffffffffffffff161415610868576040517f08c379a000000000000000000000000000000000000000000000000000000000815260040161085f906123fd565b60405180910390fd5b600360008373ffffffffffffffffffffffffffffffffffffffff1673ffffffffffffffffffffffffffffffffffffffff168152602001908152602001600020549050919050565b6060600180546108be9061202c565b80601f01602080910402602001604051908101604052809291908181526020018280546108ea9061202c565b80156109375780601f1061090c57610100808354040283529160200191610937565b820191906000526020600020905b81548152906001019060200180831161091a57829003601f168201915b5050505050905090565b610949610de0565b73ffffffffffffffffffffffffffffffffffffffff168273ffffffffffffffffffffffffffffffffffffffff1614156109b7576040517f08c379a00000000000000000000000000000000000000000000000000000000081526004016109ae90612469565b60405180910390fd5b80600560006109c4610de0565b73ffffffffffffffffffffffffffffffffffffffff1673ffffffffffffffffffffffffffffffffffffffff16815260200190815260200160002060008473ffffffffffffffffffffffffffffffffffffffff1673ffffffffffffffffffffffffffffffffffffffff16815260200190815260200160002060006101000a81548160ff0219169083151502179055508173ffffffffffffffffffffffffffffffffffffffff16610a71610de0565b73ffffffffffffffffffffffffffffffffffffffff167f17307eab39ab6107e8899845ad3d59bd9653f200f220920489ca2b5937696c3183604051610ab691906119c2565b60405180910390a35050565b610ad3610acd610de0565b83610ea1565b610b12576040517f08c379a0000000000000000000000000000000000000000000000000000000008152600401610b0990612286565b60405180910390fd5b610b1e84848484611441565b50505050565b6060610b2f82610d74565b610b6e576040517f08c379a0000000000000000000000000000000000000000000000000000000008152600401610b65906124fb565b60405180910390fd5b6000600660008481526020019081526020016000208054610b8e9061202c565b80601f0160208091040260200160405190810160405280929190818152602001828054610bba9061202c565b8015610c075780601f10610bdc57610100808354040283529160200191610c07565b820191906000526020600020905b815481529060010190602001808311610bea57829003601f168201915b505050505090506000610c1861149d565b9050600081511415610c2e578192505050610c71565b600082511115610c63578082604051602001610c4b92919061251b565b60405160208183030381529060405292505050610c71565b610c6c846114b4565b925050505b919050565b6000600560008473ffffffffffffffffffffffffffffffffffffffff1673ffffffffffffffffffffffffffffffffffffffff16815260200190815260200160002060008373ffffffffffffffffffffffffffffffffffffffff1673ffffffffffffffffffffffffffffffffffffffff16815260200190815260200160002060009054906101000a900460ff16905092915050565b60007f01ffc9a7000000000000000000000000000000000000000000000000000000007bffffffffffffffffffffffffffffffffffffffffffffffffffffffff1916827bffffffffffffffffffffffffffffffffffffffffffffffffffffffff1916149050919050565b60008073ffffffffffffffffffffffffffffffffffffffff166002600084815260200190815260200160002060009054906101000a900473ffffffffffffffffffffffffffffffffffffffff1673ffffffffffffffffffffffffffffffffffffffff1614159050919050565b600033905090565b816004600083815260200190815260200160002060006101000a81548173ffffffffffffffffffffffffffffffffffffffff021916908373ffffffffffffffffffffffffffffffffffffffff160217905550808273ffffffffffffffffffffffffffffffffffffffff16610e5b83610745565b73ffffffffffffffffffffffffffffffffffffffff167f8c5be1e5ebec7d5bd14f71427d1e84f3dd0314c0f7b2291e5b200ac8c7c3b92560405160405180910390a45050565b6000610eac82610d74565b610eeb576040517f08c379a0000000000000000000000000000000000000000000000000000000008152600401610ee2906125b1565b60405180910390fd5b6000610ef683610745565b90508073ffffffffffffffffffffffffffffffffffffffff168473ffffffffffffffffffffffffffffffffffffffff161480610f6557508373ffffffffffffffffffffffffffffffffffffffff16610f4d8461047b565b73ffffffffffffffffffffffffffffffffffffffff16145b80610f765750610f758185610c76565b5b91505092915050565b8273ffffffffffffffffffffffffffffffffffffffff16610f9f82610745565b73ffffffffffffffffffffffffffffffffffffffff1614610ff5576040517f08c379a0000000000000000000000000000000000000000000000000000000008152600401610fec90612643565b60405180910390fd5b600073ffffffffffffffffffffffffffffffffffffffff168273ffffffffffffffffffffffffffffffffffffffff161415611065576040517f08c379a000000000000000000000000000000000000000000000000000000000815260040161105c906126d5565b60405180910390fd5b61107083838361155b565b61107b600082610de8565b6001600360008573ffffffffffffffffffffffffffffffffffffffff1673ffffffffffffffffffffffffffffffffffffffff16815260200190815260200160002060008282546110cb9190612724565b925050819055506001600360008473ffffffffffffffffffffffffffffffffffffffff1673ffffffffffffffffffffffffffffffffffffffff16815260200190815260200160002060008282546111229190612758565b92505081905550816002600083815260200190815260200160002060006101000a81548173ffffffffffffffffffffffffffffffffffffffff021916908373ffffffffffffffffffffffffffffffffffffffff160217905550808273ffffffffffffffffffffffffffffffffffffffff168473ffffffffffffffffffffffffffffffffffffffff167fddf252ad1be2c89b69c2b068fc378daa952ba7f163c4a11628f55a4df523b3ef60405160405180910390a4505050565b6001816000016000828254019250508190555050565b600081600001549050919050565b600073ffffffffffffffffffffffffffffffffffffffff168273ffffffffffffffffffffffffffffffffffffffff16141561126f576040517f08c379a0000000000000000000000000000000000000000000000000000000008152600401611266906127fa565b60405180910390fd5b61127881610d74565b156112b8576040517f08c379a00000000000000000000000000000000000000000000000000000000081526004016112af90612866565b60405180910390fd5b6112c46000838361155b565b6001600360008473ffffffffffffffffffffffffffffffffffffffff1673ffffffffffffffffffffffffffffffffffffffff16815260200190815260200160002060008282546113149190612758565b92505081905550816002600083815260200190815260200160002060006101000a81548173ffffffffffffffffffffffffffffffffffffffff021916908373ffffffffffffffffffffffffffffffffffffffff160217905550808273ffffffffffffffffffffffffffffffffffffffff16600073ffffffffffffffffffffffffffffffffffffffff167fddf252ad1be2c89b69c2b068fc378daa952ba7f163c4a11628f55a4df523b3ef60405160405180910390a45050565b6113d682610d74565b611415576040517f08c379a000000000000000000000000000000000000000000000000000000000815260040161140c906128f8565b60405180910390fd5b8060066000848152602001908152602001600020908051906020019061143c92919061186b565b505050565b61144c848484610f7f565b61145884848484611560565b611497576040517f08c379a000000000000000000000000000000000000000000000000000000000815260040161148e9061298a565b60405180910390fd5b50505050565b606060405180602001604052806000815250905090565b60606114bf82610d74565b6114fe576040517f08c379a00000000000000000000000000000000000000000000000000000000081526004016114f590612a1c565b60405180910390fd5b600061150861149d565b905060008151116115285760405180602001604052806000815250611553565b80611532846116f7565b60405160200161154392919061251b565b6040516020818303038152906040525b915050919050565b505050565b60006115818473ffffffffffffffffffffffffffffffffffffffff16611858565b156116ea578373ffffffffffffffffffffffffffffffffffffffff1663150b7a026115aa610de0565b8786866040518563ffffffff1660e01b81526004016115cc9493929190612a91565b602060405180830381600087803b1580156115e657600080fd5b505af192505050801561161757506040513d601f19601f820116820180604052508101906116149190612af2565b60015b61169a573d8060008114611647576040519150601f19603f3d011682016040523d82523d6000602084013e61164c565b606091505b50600081511415611692576040517f08c379a00000000000000000000000000000000000000000000000000000000081526004016116899061298a565b60405180910390fd5b805181602001fd5b63150b7a0260e01b7bffffffffffffffffffffffffffffffffffffffffffffffffffffffff1916817bffffffffffffffffffffffffffffffffffffffffffffffffffffffff1916149150506116ef565b600190505b949350505050565b6060600082141561173f576040518060400160405280600181526020017f30000000000000000000000000000000000000000000000000000000000000008152509050611853565b600082905060005b6000821461177157808061175a90612b1f565b915050600a8261176a9190612b97565b9150611747565b60008167ffffffffffffffff81111561178d5761178c611c20565b5b6040519080825280601f01601f1916602001820160405280156117bf5781602001600182028036833780820191505090505b5090505b6000851461184c576001826117d89190612724565b9150600a856117e79190612bc8565b60306117f39190612758565b60f81b81838151811061180957611808612bf9565b5b60200101907effffffffffffffffffffffffffffffffffffffffffffffffffffffffffffff1916908160001a905350600a856118459190612b97565b94506117c3565b8093505050505b919050565b600080823b905060008111915050919050565b8280546118779061202c565b90600052602060002090601f01602090048101928261189957600085556118e0565b82601f106118b257805160ff19168380011785556118e0565b828001600101855582156118e0579182015b828111156118df5782518255916020019190600101906118c4565b5b5090506118ed91906118f1565b5090565b5b8082111561190a5760008160009055506001016118f2565b5090565b6000604051905090565b600080fd5b600080fd5b60007fffffffff0000000000000000000000000000000000000000000000000000000082169050919050565b61195781611922565b811461196257600080fd5b50565b6000813590506119748161194e565b92915050565b6000602082840312156119905761198f611918565b5b600061199e84828501611965565b91505092915050565b60008115159050919050565b6119bc816119a7565b82525050565b60006020820190506119d760008301846119b3565b92915050565b600081519050919050565b600082825260208201905092915050565b60005b83811015611a175780820151818401526020810190506119fc565b83811115611a26576000848401525b50505050565b6000601f19601f8301169050919050565b6000611a48826119dd565b611a5281856119e8565b9350611a628185602086016119f9565b611a6b81611a2c565b840191505092915050565b60006020820190508181036000830152611a908184611a3d565b905092915050565b6000819050919050565b611aab81611a98565b8114611ab657600080fd5b50565b600081359050611ac881611aa2565b92915050565b600060208284031215611ae457611ae3611918565b5b6000611af284828501611ab9565b91505092915050565b600073ffffffffffffffffffffffffffffffffffffffff82169050919050565b6000611b2682611afb565b9050919050565b611b3681611b1b565b82525050565b6000602082019050611b516000830184611b2d565b92915050565b611b6081611b1b565b8114611b6b57600080fd5b50565b600081359050611b7d81611b57565b92915050565b60008060408385031215611b9a57611b99611918565b5b6000611ba885828601611b6e565b9250506020611bb985828601611ab9565b9150509250929050565b600080600060608486031215611bdc57611bdb611918565b5b6000611bea86828701611b6e565b9350506020611bfb86828701611b6e565b9250506040611c0c86828701611ab9565b9150509250925092565b600080fd5b600080fd5b7f4e487b7100000000000000000000000000000000000000000000000000000000600052604160045260246000fd5b611c5882611a2c565b810181811067ffffffffffffffff82111715611c7757611c76611c20565b5b80604052505050565b6000611c8a61190e565b9050611c968282611c4f565b919050565b600067ffffffffffffffff821115611cb657611cb5611c20565b5b611cbf82611a2c565b9050602081019050919050565b82818337600083830152505050565b6000611cee611ce984611c9b565b611c80565b905082815260208101848484011115611d0a57611d09611c1b565b5b611d15848285611ccc565b509392505050565b600082601f830112611d3257611d31611c16565b5b8135611d42848260208601611cdb565b91505092915050565b600080600060608486031215611d6457611d63611918565b5b6000611d7286828701611b6e565b935050602084013567ffffffffffffffff811115611d9357611d9261191d565b5b611d9f86828701611d1d565b925050604084013567ffffffffffffffff811115611dc057611dbf61191d565b5b611dcc86828701611d1d565b9150509250925092565b611ddf81611a98565b82525050565b6000602082019050611dfa6000830184611dd6565b92915050565b600060208284031215611e1657611e15611918565b5b6000611e2484828501611b6e565b91505092915050565b611e36816119a7565b8114611e4157600080fd5b50565b600081359050611e5381611e2d565b92915050565b60008060408385031215611e7057611e6f611918565b5b6000611e7e85828601611b6e565b9250506020611e8f85828601611e44565b9150509250929050565b600067ffffffffffffffff821115611eb457611eb3611c20565b5b611ebd82611a2c565b9050602081019050919050565b6000611edd611ed884611e99565b611c80565b905082815260208101848484011115611ef957611ef8611c1b565b5b611f04848285611ccc565b509392505050565b600082601f830112611f2157611f20611c16565b5b8135611f31848260208601611eca565b91505092915050565b60008060008060808587031215611f5457611f53611918565b5b6000611f6287828801611b6e565b9450506020611f7387828801611b6e565b9350506040611f8487828801611ab9565b925050606085013567ffffffffffffffff811115611fa557611fa461191d565b5b611fb187828801611f0c565b91505092959194509250565b60008060408385031215611fd457611fd3611918565b5b6000611fe285828601611b6e565b9250506020611ff385828601611b6e565b9150509250929050565b7f4e487b7100000000000000000000000000000000000000000000000000000000600052602260045260246000fd5b6000600282049050600182168061204457607f821691505b6020821081141561205857612057611ffd565b5b50919050565b7f4552433732313a20617070726f76656420717565727920666f72206e6f6e657860008201527f697374656e7420746f6b656e0000000000000000000000000000000000000000602082015250565b60006120ba602c836119e8565b91506120c58261205e565b604082019050919050565b600060208201905081810360008301526120e9816120ad565b9050919050565b7f4552433732313a20617070726f76616c20746f2063757272656e74206f776e6560008201527f7200000000000000000000000000000000000000000000000000000000000000602082015250565b600061214c6021836119e8565b9150612157826120f0565b604082019050919050565b6000602082019050818103600083015261217b8161213f565b9050919050565b7f4552433732313a20617070726f76652063616c6c6572206973206e6f74206f7760008201527f6e6572206e6f7220617070726f76656420666f7220616c6c0000000000000000602082015250565b60006121de6038836119e8565b91506121e982612182565b604082019050919050565b6000602082019050818103600083015261220d816121d1565b9050919050565b7f4552433732313a207472616e736665722063616c6c6572206973206e6f74206f60008201527f776e6572206e6f7220617070726f766564000000000000000000000000000000602082015250565b60006122706031836119e8565b915061227b82612214565b604082019050919050565b6000602082019050818103600083015261229f81612263565b9050919050565b600081905092915050565b60006122bc826119dd565b6122c681856122a6565b93506122d68185602086016119f9565b80840191505092915050565b60006122ee82846122b1565b915081905092915050565b7f4552433732313a206f776e657220717565727920666f72206e6f6e657869737460008201527f656e7420746f6b656e0000000000000000000000000000000000000000000000602082015250565b60006123556029836119e8565b9150612360826122f9565b604082019050919050565b6000602082019050818103600083015261238481612348565b9050919050565b7f4552433732313a2062616c616e636520717565727920666f7220746865207a6560008201527f726f206164647265737300000000000000000000000000000000000000000000602082015250565b60006123e7602a836119e8565b91506123f28261238b565b604082019050919050565b60006020820190508181036000830152612416816123da565b9050919050565b7f4552433732313a20617070726f766520746f2063616c6c657200000000000000600082015250565b60006124536019836119e8565b915061245e8261241d565b602082019050919050565b6000602082019050818103600083015261248281612446565b9050919050565b7f45524337323155524953746f726167653a2055524920717565727920666f722060008201527f6e6f6e6578697374656e7420746f6b656e000000000000000000000000000000602082015250565b60006124e56031836119e8565b91506124f082612489565b604082019050919050565b60006020820190508181036000830152612514816124d8565b9050919050565b600061252782856122b1565b915061253382846122b1565b91508190509392505050565b7f4552433732313a206f70657261746f7220717565727920666f72206e6f6e657860008201527f697374656e7420746f6b656e0000000000000000000000000000000000000000602082015250565b600061259b602c836119e8565b91506125a68261253f565b604082019050919050565b600060208201905081810360008301526125ca8161258e565b9050919050565b7f4552433732313a207472616e73666572206f6620746f6b656e2074686174206960008201527f73206e6f74206f776e0000000000000000000000000000000000000000000000602082015250565b600061262d6029836119e8565b9150612638826125d1565b604082019050919050565b6000602082019050818103600083015261265c81612620565b9050919050565b7f4552433732313a207472616e7366657220746f20746865207a65726f2061646460008201527f7265737300000000000000000000000000000000000000000000000000000000602082015250565b60006126bf6024836119e8565b91506126ca82612663565b604082019050919050565b600060208201905081810360008301526126ee816126b2565b9050919050565b7f4e487b7100000000000000000000000000000000000000000000000000000000600052601160045260246000fd5b600061272f82611a98565b915061273a83611a98565b92508282101561274d5761274c6126f5565b5b828203905092915050565b600061276382611a98565b915061276e83611a98565b9250827fffffffffffffffffffffffffffffffffffffffffffffffffffffffffffffffff038211156127a3576127a26126f5565b5b828201905092915050565b7f4552433732313a206d696e7420746f20746865207a65726f2061646472657373600082015250565b60006127e46020836119e8565b91506127ef826127ae565b602082019050919050565b60006020820190508181036000830152612813816127d7565b9050919050565b7f4552433732313a20746f6b656e20616c7265616479206d696e74656400000000600082015250565b6000612850601c836119e8565b915061285b8261281a565b602082019050919050565b6000602082019050818103600083015261287f81612843565b9050919050565b7f45524337323155524953746f726167653a2055524920736574206f66206e6f6e60008201527f6578697374656e7420746f6b656e000000000000000000000000000000000000602082015250565b60006128e2602e836119e8565b91506128ed82612886565b604082019050919050565b60006020820190508181036000830152612911816128d5565b9050919050565b7f4552433732313a207472616e7366657220746f206e6f6e20455243373231526560008201527f63656976657220696d706c656d656e7465720000000000000000000000000000602082015250565b60006129746032836119e8565b915061297f82612918565b604082019050919050565b600060208201905081810360008301526129a381612967565b9050919050565b7f4552433732314d657461646174613a2055524920717565727920666f72206e6f60008201527f6e6578697374656e7420746f6b656e0000000000000000000000000000000000602082015250565b6000612a06602f836119e8565b9150612a11826129aa565b604082019050919050565b60006020820190508181036000830152612a35816129f9565b9050919050565b600081519050919050565b600082825260208201905092915050565b6000612a6382612a3c565b612a6d8185612a47565b9350612a7d8185602086016119f9565b612a8681611a2c565b840191505092915050565b6000608082019050612aa66000830187611b2d565b612ab36020830186611b2d565b612ac06040830185611dd6565b8181036060830152612ad28184612a58565b905095945050505050565b600081519050612aec8161194e565b92915050565b600060208284031215612b0857612b07611918565b5b6000612b1684828501612add565b91505092915050565b6000612b2a82611a98565b91507fffffffffffffffffffffffffffffffffffffffffffffffffffffffffffffffff821415612b5d57612b5c6126f5565b5b600182019050919050565b7f4e487b7100000000000000000000000000000000000000000000000000000000600052601260045260246000fd5b6000612ba282611a98565b9150612bad83611a98565b925082612bbd57612bbc612b68565b5b828204905092915050565b6000612bd382611a98565b9150612bde83611a98565b925082612bee57612bed612b68565b5b828206905092915050565b7f4e487b7100000000000000000000000000000000000000000000000000000000600052603260045260246000fdfea2646970667358221220c265d4ec56c0ceecd89cdeb3a29ddc493b4e4ffaf635b2a1949fff0a9875202e64736f6c63430008090033",
  "immutableReferences": {},
  "source": "// SPDX-License-Identifier: GPL-3.0\npragma solidity >=0.7.0 <0.9.0;\nimport \"@openzeppelin/contracts/token/ERC721/ERC721.sol\";\nimport \"@openzeppelin/contracts/token/ERC721/extensions/ERC721URIStorage.sol\";\nimport \"@openzeppelin/contracts/utils/Counters.sol\";\nimport \"hardhat/console.sol\";\n\n/*\n* @Subasta v1.0\n* @Smart Contract de un sistema de subastas\n* http://myhsts.org/tutorial-learn-how-to-build-auction-dapp-with-ethereum-and-solidity-programming-language.php\n*/\n\ncontract NftSubastable is ERC721URIStorage {\n    using Counters for Counters.Counter;\n    Counters.Counter private _tokenIds;\n    mapping(string => uint8) hashes;\n\n\n    constructor() ERC721(\"NftSubastable\", \"NFTSub\") {  }\n\n    function CrearNFT(address owner, string memory hash, string memory metadata) public returns (uint256)\n    {\n        require(hashes[hash] != 1);\n        hashes[hash] = 1;\n        _tokenIds.increment();\n        uint256 nuevoItemId = _tokenIds.current();\n        _mint(owner, nuevoItemId);\n        _setTokenURI(nuevoItemId, metadata);\n        return nuevoItemId;\n    }\n}",
  "sourcePath": "/Users/hvaldez/Documents/git/auction-smart-contract/contracts/NftSubastable.sol",
  "compiler": {
    "name": "solc",
    "version": "0.8.9+commit.e5eed63a.Emscripten.clang"
  },
  "schemaVersion": "3.4.3",
  "updatedAt": "2021-10-24T12:58:46.437Z",
  "networkType": "ethereum",
  "devdoc": {
    "kind": "dev",
    "methods": {
      "approve(address,uint256)": {
        "details": "See {IERC721-approve}."
      },
      "balanceOf(address)": {
        "details": "See {IERC721-balanceOf}."
      },
      "getApproved(uint256)": {
        "details": "See {IERC721-getApproved}."
      },
      "isApprovedForAll(address,address)": {
        "details": "See {IERC721-isApprovedForAll}."
      },
      "name()": {
        "details": "See {IERC721Metadata-name}."
      },
      "ownerOf(uint256)": {
        "details": "See {IERC721-ownerOf}."
      },
      "safeTransferFrom(address,address,uint256)": {
        "details": "See {IERC721-safeTransferFrom}."
      },
      "safeTransferFrom(address,address,uint256,bytes)": {
        "details": "See {IERC721-safeTransferFrom}."
      },
      "setApprovalForAll(address,bool)": {
        "details": "See {IERC721-setApprovalForAll}."
      },
      "supportsInterface(bytes4)": {
        "details": "See {IERC165-supportsInterface}."
      },
      "symbol()": {
        "details": "See {IERC721Metadata-symbol}."
      },
      "tokenURI(uint256)": {
        "details": "See {IERC721Metadata-tokenURI}."
      },
      "transferFrom(address,address,uint256)": {
        "details": "See {IERC721-transferFrom}."
      }
    },
    "version": 1
  },
  "userdoc": {
    "kind": "user",
    "methods": {},
    "version": 1
  }
}