{
  "contractName": "NftSubastable",
  "abi": [
    {
      "inputs": [],
      "stateMutability": "nonpayable",
      "type": "constructor"
    },
    {
      "anonymous": false,
      "inputs": [
        {
          "indexed": true,
          "internalType": "address",
          "name": "owner",
          "type": "address"
        },
        {
          "indexed": true,
          "internalType": "address",
          "name": "approved",
          "type": "address"
        },
        {
          "indexed": true,
          "internalType": "uint256",
          "name": "tokenId",
          "type": "uint256"
        }
      ],
      "name": "Approval",
      "type": "event"
    },
    {
      "anonymous": false,
      "inputs": [
        {
          "indexed": true,
          "internalType": "address",
          "name": "owner",
          "type": "address"
        },
        {
          "indexed": true,
          "internalType": "address",
          "name": "operator",
          "type": "address"
        },
        {
          "indexed": false,
          "internalType": "bool",
          "name": "approved",
          "type": "bool"
        }
      ],
      "name": "ApprovalForAll",
      "type": "event"
    },
    {
      "anonymous": false,
      "inputs": [
        {
          "indexed": true,
          "internalType": "address",
          "name": "previousOwner",
          "type": "address"
        },
        {
          "indexed": true,
          "internalType": "address",
          "name": "newOwner",
          "type": "address"
        }
      ],
      "name": "OwnershipTransferred",
      "type": "event"
    },
    {
      "anonymous": false,
      "inputs": [
        {
          "indexed": true,
          "internalType": "address",
          "name": "from",
          "type": "address"
        },
        {
          "indexed": true,
          "internalType": "address",
          "name": "to",
          "type": "address"
        },
        {
          "indexed": true,
          "internalType": "uint256",
          "name": "tokenId",
          "type": "uint256"
        }
      ],
      "name": "Transfer",
      "type": "event"
    },
    {
      "inputs": [
        {
          "internalType": "address",
          "name": "to",
          "type": "address"
        },
        {
          "internalType": "uint256",
          "name": "tokenId",
          "type": "uint256"
        }
      ],
      "name": "approve",
      "outputs": [],
      "stateMutability": "nonpayable",
      "type": "function"
    },
    {
      "inputs": [
        {
          "internalType": "address",
          "name": "owner",
          "type": "address"
        }
      ],
      "name": "balanceOf",
      "outputs": [
        {
          "internalType": "uint256",
          "name": "",
          "type": "uint256"
        }
      ],
      "stateMutability": "view",
      "type": "function",
      "constant": true
    },
    {
      "inputs": [
        {
          "internalType": "uint256",
          "name": "tokenId",
          "type": "uint256"
        }
      ],
      "name": "getApproved",
      "outputs": [
        {
          "internalType": "address",
          "name": "",
          "type": "address"
        }
      ],
      "stateMutability": "view",
      "type": "function",
      "constant": true
    },
    {
      "inputs": [
        {
          "internalType": "address",
          "name": "owner",
          "type": "address"
        },
        {
          "internalType": "address",
          "name": "operator",
          "type": "address"
        }
      ],
      "name": "isApprovedForAll",
      "outputs": [
        {
          "internalType": "bool",
          "name": "",
          "type": "bool"
        }
      ],
      "stateMutability": "view",
      "type": "function",
      "constant": true
    },
    {
      "inputs": [],
      "name": "name",
      "outputs": [
        {
          "internalType": "string",
          "name": "",
          "type": "string"
        }
      ],
      "stateMutability": "view",
      "type": "function",
      "constant": true
    },
    {
      "inputs": [],
      "name": "owner",
      "outputs": [
        {
          "internalType": "address",
          "name": "",
          "type": "address"
        }
      ],
      "stateMutability": "view",
      "type": "function",
      "constant": true
    },
    {
      "inputs": [
        {
          "internalType": "uint256",
          "name": "tokenId",
          "type": "uint256"
        }
      ],
      "name": "ownerOf",
      "outputs": [
        {
          "internalType": "address",
          "name": "",
          "type": "address"
        }
      ],
      "stateMutability": "view",
      "type": "function",
      "constant": true
    },
    {
      "inputs": [],
      "name": "renounceOwnership",
      "outputs": [],
      "stateMutability": "nonpayable",
      "type": "function"
    },
    {
      "inputs": [
        {
          "internalType": "address",
          "name": "from",
          "type": "address"
        },
        {
          "internalType": "address",
          "name": "to",
          "type": "address"
        },
        {
          "internalType": "uint256",
          "name": "tokenId",
          "type": "uint256"
        }
      ],
      "name": "safeTransferFrom",
      "outputs": [],
      "stateMutability": "nonpayable",
      "type": "function"
    },
    {
      "inputs": [
        {
          "internalType": "address",
          "name": "from",
          "type": "address"
        },
        {
          "internalType": "address",
          "name": "to",
          "type": "address"
        },
        {
          "internalType": "uint256",
          "name": "tokenId",
          "type": "uint256"
        },
        {
          "internalType": "bytes",
          "name": "_data",
          "type": "bytes"
        }
      ],
      "name": "safeTransferFrom",
      "outputs": [],
      "stateMutability": "nonpayable",
      "type": "function"
    },
    {
      "inputs": [
        {
          "internalType": "address",
          "name": "operator",
          "type": "address"
        },
        {
          "internalType": "bool",
          "name": "approved",
          "type": "bool"
        }
      ],
      "name": "setApprovalForAll",
      "outputs": [],
      "stateMutability": "nonpayable",
      "type": "function"
    },
    {
      "inputs": [
        {
          "internalType": "bytes4",
          "name": "interfaceId",
          "type": "bytes4"
        }
      ],
      "name": "supportsInterface",
      "outputs": [
        {
          "internalType": "bool",
          "name": "",
          "type": "bool"
        }
      ],
      "stateMutability": "view",
      "type": "function",
      "constant": true
    },
    {
      "inputs": [],
      "name": "symbol",
      "outputs": [
        {
          "internalType": "string",
          "name": "",
          "type": "string"
        }
      ],
      "stateMutability": "view",
      "type": "function",
      "constant": true
    },
    {
      "inputs": [
        {
          "internalType": "address",
          "name": "from",
          "type": "address"
        },
        {
          "internalType": "address",
          "name": "to",
          "type": "address"
        },
        {
          "internalType": "uint256",
          "name": "tokenId",
          "type": "uint256"
        }
      ],
      "name": "transferFrom",
      "outputs": [],
      "stateMutability": "nonpayable",
      "type": "function"
    },
    {
      "inputs": [
        {
          "internalType": "address",
          "name": "newOwner",
          "type": "address"
        }
      ],
      "name": "transferOwnership",
      "outputs": [],
      "stateMutability": "nonpayable",
      "type": "function"
    },
    {
      "inputs": [
        {
          "internalType": "address",
          "name": "owner",
          "type": "address"
        },
        {
          "internalType": "string",
          "name": "hash",
          "type": "string"
        },
        {
          "internalType": "string",
          "name": "metadata",
          "type": "string"
        }
      ],
      "name": "CrearNFT",
      "outputs": [
        {
          "internalType": "uint256",
          "name": "",
          "type": "uint256"
        }
      ],
      "stateMutability": "nonpayable",
      "type": "function"
    },
    {
      "inputs": [
        {
          "internalType": "uint256",
          "name": "tokenId",
          "type": "uint256"
        }
      ],
      "name": "tokenURI",
      "outputs": [
        {
          "internalType": "string",
          "name": "",
          "type": "string"
        }
      ],
      "stateMutability": "view",
      "type": "function",
      "constant": true
    }
  ],
  "bytecode": "0x60806040523480156200001157600080fd5b506040518060400160405280600d81526020017f4e667453756261737461626c65000000000000000000000000000000000000008152506040518060400160405280600681526020017f4e46545375620000000000000000000000000000000000000000000000000000815250816000908051906020019062000096929190620001a6565b508060019080519060200190620000af929190620001a6565b505050620000d2620000c6620000d860201b60201c565b620000e060201b60201c565b620002bb565b600033905090565b6000600760009054906101000a900473ffffffffffffffffffffffffffffffffffffffff16905081600760006101000a81548173ffffffffffffffffffffffffffffffffffffffff021916908373ffffffffffffffffffffffffffffffffffffffff1602179055508173ffffffffffffffffffffffffffffffffffffffff168173ffffffffffffffffffffffffffffffffffffffff167f8be0079c531659141344cd1fd0a4f28419497f9722a3daafe3b4186f6b6457e060405160405180910390a35050565b828054620001b49062000285565b90600052602060002090601f016020900481019282620001d8576000855562000224565b82601f10620001f357805160ff191683800117855562000224565b8280016001018555821562000224579182015b828111156200022357825182559160200191906001019062000206565b5b50905062000233919062000237565b5090565b5b808211156200025257600081600090555060010162000238565b5090565b7f4e487b7100000000000000000000000000000000000000000000000000000000600052602260045260246000fd5b600060028204905060018216806200029e57607f821691505b60208210811415620002b557620002b462000256565b5b50919050565b6131da80620002cb6000396000f3fe608060405234801561001057600080fd5b506004361061010b5760003560e01c806370a08231116100a2578063a22cb46511610071578063a22cb465146102b8578063b88d4fde146102d4578063c87b56dd146102f0578063e985e9c514610320578063f2fde38b146103505761010b565b806370a0823114610242578063715018a6146102725780638da5cb5b1461027c57806395d89b411461029a5761010b565b806323b872dd116100de57806323b872dd146101aa578063348de396146101c657806342842e0e146101f65780636352211e146102125761010b565b806301ffc9a71461011057806306fdde0314610140578063081812fc1461015e578063095ea7b31461018e575b600080fd5b61012a60048036038101906101259190611d8c565b61036c565b6040516101379190611dd4565b60405180910390f35b61014861044e565b6040516101559190611e88565b60405180910390f35b61017860048036038101906101739190611ee0565b6104e0565b6040516101859190611f4e565b60405180910390f35b6101a860048036038101906101a39190611f95565b610565565b005b6101c460048036038101906101bf9190611fd5565b61067d565b005b6101e060048036038101906101db919061215d565b6106dd565b6040516101ed91906121f7565b60405180910390f35b610210600480360381019061020b9190611fd5565b61083c565b005b61022c60048036038101906102279190611ee0565b61085c565b6040516102399190611f4e565b60405180910390f35b61025c60048036038101906102579190612212565b61090e565b60405161026991906121f7565b60405180910390f35b61027a6109c6565b005b610284610a4e565b6040516102919190611f4e565b60405180910390f35b6102a2610a78565b6040516102af9190611e88565b60405180910390f35b6102d260048036038101906102cd919061226b565b610b0a565b005b6102ee60048036038101906102e9919061234c565b610c8b565b005b61030a60048036038101906103059190611ee0565b610ced565b6040516103179190611e88565b60405180910390f35b61033a600480360381019061033591906123cf565b610cff565b6040516103479190611dd4565b60405180910390f35b61036a60048036038101906103659190612212565b610d93565b005b60007f80ac58cd000000000000000000000000000000000000000000000000000000007bffffffffffffffffffffffffffffffffffffffffffffffffffffffff1916827bffffffffffffffffffffffffffffffffffffffffffffffffffffffff1916148061043757507f5b5e139f000000000000000000000000000000000000000000000000000000007bffffffffffffffffffffffffffffffffffffffffffffffffffffffff1916827bffffffffffffffffffffffffffffffffffffffffffffffffffffffff1916145b80610447575061044682610e8b565b5b9050919050565b60606000805461045d9061243e565b80601f01602080910402602001604051908101604052809291908181526020018280546104899061243e565b80156104d65780601f106104ab576101008083540402835291602001916104d6565b820191906000526020600020905b8154815290600101906020018083116104b957829003601f168201915b5050505050905090565b60006104eb82610ef5565b61052a576040517f08c379a0000000000000000000000000000000000000000000000000000000008152600401610521906124e2565b60405180910390fd5b6004600083815260200190815260200160002060009054906101000a900473ffffffffffffffffffffffffffffffffffffffff169050919050565b60006105708261085c565b90508073ffffffffffffffffffffffffffffffffffffffff168373ffffffffffffffffffffffffffffffffffffffff1614156105e1576040517f08c379a00000000000000000000000000000000000000000000000000000000081526004016105d890612574565b60405180910390fd5b8073ffffffffffffffffffffffffffffffffffffffff16610600610f61565b73ffffffffffffffffffffffffffffffffffffffff16148061062f575061062e81610629610f61565b610cff565b5b61066e576040517f08c379a000000000000000000000000000000000000000000000000000000000815260040161066590612606565b60405180910390fd5b6106788383610f69565b505050565b61068e610688610f61565b82611022565b6106cd576040517f08c379a00000000000000000000000000000000000000000000000000000000081526004016106c490612698565b60405180910390fd5b6106d8838383611100565b505050565b60006106e7610f61565b73ffffffffffffffffffffffffffffffffffffffff16610705610a4e565b73ffffffffffffffffffffffffffffffffffffffff161461075b576040517f08c379a000000000000000000000000000000000000000000000000000000000815260040161075290612704565b60405180910390fd5b600160098460405161076d9190612760565b908152602001604051809103902060009054906101000a900460ff1660ff1614156107cd576040517f08c379a00000000000000000000000000000000000000000000000000000000081526004016107c4906127c3565b60405180910390fd5b60016009846040516107df9190612760565b908152602001604051809103902060006101000a81548160ff021916908360ff16021790555061080f600861135c565b600061081b6008611372565b90506108278582611380565b610831818461139e565b809150509392505050565b61085783838360405180602001604052806000815250610c8b565b505050565b6000806002600084815260200190815260200160002060009054906101000a900473ffffffffffffffffffffffffffffffffffffffff169050600073ffffffffffffffffffffffffffffffffffffffff168173ffffffffffffffffffffffffffffffffffffffff161415610905576040517f08c379a00000000000000000000000000000000000000000000000000000000081526004016108fc90612855565b60405180910390fd5b80915050919050565b60008073ffffffffffffffffffffffffffffffffffffffff168273ffffffffffffffffffffffffffffffffffffffff16141561097f576040517f08c379a0000000000000000000000000000000000000000000000000000000008152600401610976906128e7565b60405180910390fd5b600360008373ffffffffffffffffffffffffffffffffffffffff1673ffffffffffffffffffffffffffffffffffffffff168152602001908152602001600020549050919050565b6109ce610f61565b73ffffffffffffffffffffffffffffffffffffffff166109ec610a4e565b73ffffffffffffffffffffffffffffffffffffffff1614610a42576040517f08c379a0000000000000000000000000000000000000000000000000000000008152600401610a3990612704565b60405180910390fd5b610a4c6000611412565b565b6000600760009054906101000a900473ffffffffffffffffffffffffffffffffffffffff16905090565b606060018054610a879061243e565b80601f0160208091040260200160405190810160405280929190818152602001828054610ab39061243e565b8015610b005780601f10610ad557610100808354040283529160200191610b00565b820191906000526020600020905b815481529060010190602001808311610ae357829003601f168201915b5050505050905090565b610b12610f61565b73ffffffffffffffffffffffffffffffffffffffff168273ffffffffffffffffffffffffffffffffffffffff161415610b80576040517f08c379a0000000000000000000000000000000000000000000000000000000008152600401610b7790612953565b60405180910390fd5b8060056000610b8d610f61565b73ffffffffffffffffffffffffffffffffffffffff1673ffffffffffffffffffffffffffffffffffffffff16815260200190815260200160002060008473ffffffffffffffffffffffffffffffffffffffff1673ffffffffffffffffffffffffffffffffffffffff16815260200190815260200160002060006101000a81548160ff0219169083151502179055508173ffffffffffffffffffffffffffffffffffffffff16610c3a610f61565b73ffffffffffffffffffffffffffffffffffffffff167f17307eab39ab6107e8899845ad3d59bd9653f200f220920489ca2b5937696c3183604051610c7f9190611dd4565b60405180910390a35050565b610c9c610c96610f61565b83611022565b610cdb576040517f08c379a0000000000000000000000000000000000000000000000000000000008152600401610cd290612698565b60405180910390fd5b610ce7848484846114d8565b50505050565b6060610cf882611534565b9050919050565b6000600560008473ffffffffffffffffffffffffffffffffffffffff1673ffffffffffffffffffffffffffffffffffffffff16815260200190815260200160002060008373ffffffffffffffffffffffffffffffffffffffff1673ffffffffffffffffffffffffffffffffffffffff16815260200190815260200160002060009054906101000a900460ff16905092915050565b610d9b610f61565b73ffffffffffffffffffffffffffffffffffffffff16610db9610a4e565b73ffffffffffffffffffffffffffffffffffffffff1614610e0f576040517f08c379a0000000000000000000000000000000000000000000000000000000008152600401610e0690612704565b60405180910390fd5b600073ffffffffffffffffffffffffffffffffffffffff168173ffffffffffffffffffffffffffffffffffffffff161415610e7f576040517f08c379a0000000000000000000000000000000000000000000000000000000008152600401610e76906129e5565b60405180910390fd5b610e8881611412565b50565b60007f01ffc9a7000000000000000000000000000000000000000000000000000000007bffffffffffffffffffffffffffffffffffffffffffffffffffffffff1916827bffffffffffffffffffffffffffffffffffffffffffffffffffffffff1916149050919050565b60008073ffffffffffffffffffffffffffffffffffffffff166002600084815260200190815260200160002060009054906101000a900473ffffffffffffffffffffffffffffffffffffffff1673ffffffffffffffffffffffffffffffffffffffff1614159050919050565b600033905090565b816004600083815260200190815260200160002060006101000a81548173ffffffffffffffffffffffffffffffffffffffff021916908373ffffffffffffffffffffffffffffffffffffffff160217905550808273ffffffffffffffffffffffffffffffffffffffff16610fdc8361085c565b73ffffffffffffffffffffffffffffffffffffffff167f8c5be1e5ebec7d5bd14f71427d1e84f3dd0314c0f7b2291e5b200ac8c7c3b92560405160405180910390a45050565b600061102d82610ef5565b61106c576040517f08c379a000000000000000000000000000000000000000000000000000000000815260040161106390612a77565b60405180910390fd5b60006110778361085c565b90508073ffffffffffffffffffffffffffffffffffffffff168473ffffffffffffffffffffffffffffffffffffffff1614806110e657508373ffffffffffffffffffffffffffffffffffffffff166110ce846104e0565b73ffffffffffffffffffffffffffffffffffffffff16145b806110f757506110f68185610cff565b5b91505092915050565b8273ffffffffffffffffffffffffffffffffffffffff166111208261085c565b73ffffffffffffffffffffffffffffffffffffffff1614611176576040517f08c379a000000000000000000000000000000000000000000000000000000000815260040161116d90612b09565b60405180910390fd5b600073ffffffffffffffffffffffffffffffffffffffff168273ffffffffffffffffffffffffffffffffffffffff1614156111e6576040517f08c379a00000000000000000000000000000000000000000000000000000000081526004016111dd90612b9b565b60405180910390fd5b6111f1838383611686565b6111fc600082610f69565b6001600360008573ffffffffffffffffffffffffffffffffffffffff1673ffffffffffffffffffffffffffffffffffffffff168152602001908152602001600020600082825461124c9190612bea565b925050819055506001600360008473ffffffffffffffffffffffffffffffffffffffff1673ffffffffffffffffffffffffffffffffffffffff16815260200190815260200160002060008282546112a39190612c1e565b92505081905550816002600083815260200190815260200160002060006101000a81548173ffffffffffffffffffffffffffffffffffffffff021916908373ffffffffffffffffffffffffffffffffffffffff160217905550808273ffffffffffffffffffffffffffffffffffffffff168473ffffffffffffffffffffffffffffffffffffffff167fddf252ad1be2c89b69c2b068fc378daa952ba7f163c4a11628f55a4df523b3ef60405160405180910390a4505050565b6001816000016000828254019250508190555050565b600081600001549050919050565b61139a82826040518060200160405280600081525061168b565b5050565b6113a782610ef5565b6113e6576040517f08c379a00000000000000000000000000000000000000000000000000000000081526004016113dd90612ce6565b60405180910390fd5b8060066000848152602001908152602001600020908051906020019061140d929190611c7d565b505050565b6000600760009054906101000a900473ffffffffffffffffffffffffffffffffffffffff16905081600760006101000a81548173ffffffffffffffffffffffffffffffffffffffff021916908373ffffffffffffffffffffffffffffffffffffffff1602179055508173ffffffffffffffffffffffffffffffffffffffff168173ffffffffffffffffffffffffffffffffffffffff167f8be0079c531659141344cd1fd0a4f28419497f9722a3daafe3b4186f6b6457e060405160405180910390a35050565b6114e3848484611100565b6114ef848484846116e6565b61152e576040517f08c379a000000000000000000000000000000000000000000000000000000000815260040161152590612d78565b60405180910390fd5b50505050565b606061153f82610ef5565b61157e576040517f08c379a000000000000000000000000000000000000000000000000000000000815260040161157590612e0a565b60405180910390fd5b600060066000848152602001908152602001600020805461159e9061243e565b80601f01602080910402602001604051908101604052809291908181526020018280546115ca9061243e565b80156116175780601f106115ec57610100808354040283529160200191611617565b820191906000526020600020905b8154815290600101906020018083116115fa57829003601f168201915b50505050509050600061162861187d565b905060008151141561163e578192505050611681565b60008251111561167357808260405160200161165b929190612e2a565b60405160208183030381529060405292505050611681565b61167c84611894565b925050505b919050565b505050565b611695838361193b565b6116a260008484846116e6565b6116e1576040517f08c379a00000000000000000000000000000000000000000000000000000000081526004016116d890612d78565b60405180910390fd5b505050565b60006117078473ffffffffffffffffffffffffffffffffffffffff16611b09565b15611870578373ffffffffffffffffffffffffffffffffffffffff1663150b7a02611730610f61565b8786866040518563ffffffff1660e01b81526004016117529493929190612ea3565b602060405180830381600087803b15801561176c57600080fd5b505af192505050801561179d57506040513d601f19601f8201168201806040525081019061179a9190612f04565b60015b611820573d80600081146117cd576040519150601f19603f3d011682016040523d82523d6000602084013e6117d2565b606091505b50600081511415611818576040517f08c379a000000000000000000000000000000000000000000000000000000000815260040161180f90612d78565b60405180910390fd5b805181602001fd5b63150b7a0260e01b7bffffffffffffffffffffffffffffffffffffffffffffffffffffffff1916817bffffffffffffffffffffffffffffffffffffffffffffffffffffffff191614915050611875565b600190505b949350505050565b606060405180602001604052806000815250905090565b606061189f82610ef5565b6118de576040517f08c379a00000000000000000000000000000000000000000000000000000000081526004016118d590612fa3565b60405180910390fd5b60006118e861187d565b905060008151116119085760405180602001604052806000815250611933565b8061191284611b1c565b604051602001611923929190612e2a565b6040516020818303038152906040525b915050919050565b600073ffffffffffffffffffffffffffffffffffffffff168273ffffffffffffffffffffffffffffffffffffffff1614156119ab576040517f08c379a00000000000000000000000000000000000000000000000000000000081526004016119a29061300f565b60405180910390fd5b6119b481610ef5565b156119f4576040517f08c379a00000000000000000000000000000000000000000000000000000000081526004016119eb9061307b565b60405180910390fd5b611a0060008383611686565b6001600360008473ffffffffffffffffffffffffffffffffffffffff1673ffffffffffffffffffffffffffffffffffffffff1681526020019081526020016000206000828254611a509190612c1e565b92505081905550816002600083815260200190815260200160002060006101000a81548173ffffffffffffffffffffffffffffffffffffffff021916908373ffffffffffffffffffffffffffffffffffffffff160217905550808273ffffffffffffffffffffffffffffffffffffffff16600073ffffffffffffffffffffffffffffffffffffffff167fddf252ad1be2c89b69c2b068fc378daa952ba7f163c4a11628f55a4df523b3ef60405160405180910390a45050565b600080823b905060008111915050919050565b60606000821415611b64576040518060400160405280600181526020017f30000000000000000000000000000000000000000000000000000000000000008152509050611c78565b600082905060005b60008214611b96578080611b7f9061309b565b915050600a82611b8f9190613113565b9150611b6c565b60008167ffffffffffffffff811115611bb257611bb1612032565b5b6040519080825280601f01601f191660200182016040528015611be45781602001600182028036833780820191505090505b5090505b60008514611c7157600182611bfd9190612bea565b9150600a85611c0c9190613144565b6030611c189190612c1e565b60f81b818381518110611c2e57611c2d613175565b5b60200101907effffffffffffffffffffffffffffffffffffffffffffffffffffffffffffff1916908160001a905350600a85611c6a9190613113565b9450611be8565b8093505050505b919050565b828054611c899061243e565b90600052602060002090601f016020900481019282611cab5760008555611cf2565b82601f10611cc457805160ff1916838001178555611cf2565b82800160010185558215611cf2579182015b82811115611cf1578251825591602001919060010190611cd6565b5b509050611cff9190611d03565b5090565b5b80821115611d1c576000816000905550600101611d04565b5090565b6000604051905090565b600080fd5b600080fd5b60007fffffffff0000000000000000000000000000000000000000000000000000000082169050919050565b611d6981611d34565b8114611d7457600080fd5b50565b600081359050611d8681611d60565b92915050565b600060208284031215611da257611da1611d2a565b5b6000611db084828501611d77565b91505092915050565b60008115159050919050565b611dce81611db9565b82525050565b6000602082019050611de96000830184611dc5565b92915050565b600081519050919050565b600082825260208201905092915050565b60005b83811015611e29578082015181840152602081019050611e0e565b83811115611e38576000848401525b50505050565b6000601f19601f8301169050919050565b6000611e5a82611def565b611e648185611dfa565b9350611e74818560208601611e0b565b611e7d81611e3e565b840191505092915050565b60006020820190508181036000830152611ea28184611e4f565b905092915050565b6000819050919050565b611ebd81611eaa565b8114611ec857600080fd5b50565b600081359050611eda81611eb4565b92915050565b600060208284031215611ef657611ef5611d2a565b5b6000611f0484828501611ecb565b91505092915050565b600073ffffffffffffffffffffffffffffffffffffffff82169050919050565b6000611f3882611f0d565b9050919050565b611f4881611f2d565b82525050565b6000602082019050611f636000830184611f3f565b92915050565b611f7281611f2d565b8114611f7d57600080fd5b50565b600081359050611f8f81611f69565b92915050565b60008060408385031215611fac57611fab611d2a565b5b6000611fba85828601611f80565b9250506020611fcb85828601611ecb565b9150509250929050565b600080600060608486031215611fee57611fed611d2a565b5b6000611ffc86828701611f80565b935050602061200d86828701611f80565b925050604061201e86828701611ecb565b9150509250925092565b600080fd5b600080fd5b7f4e487b7100000000000000000000000000000000000000000000000000000000600052604160045260246000fd5b61206a82611e3e565b810181811067ffffffffffffffff8211171561208957612088612032565b5b80604052505050565b600061209c611d20565b90506120a88282612061565b919050565b600067ffffffffffffffff8211156120c8576120c7612032565b5b6120d182611e3e565b9050602081019050919050565b82818337600083830152505050565b60006121006120fb846120ad565b612092565b90508281526020810184848401111561211c5761211b61202d565b5b6121278482856120de565b509392505050565b600082601f83011261214457612143612028565b5b81356121548482602086016120ed565b91505092915050565b60008060006060848603121561217657612175611d2a565b5b600061218486828701611f80565b935050602084013567ffffffffffffffff8111156121a5576121a4611d2f565b5b6121b18682870161212f565b925050604084013567ffffffffffffffff8111156121d2576121d1611d2f565b5b6121de8682870161212f565b9150509250925092565b6121f181611eaa565b82525050565b600060208201905061220c60008301846121e8565b92915050565b60006020828403121561222857612227611d2a565b5b600061223684828501611f80565b91505092915050565b61224881611db9565b811461225357600080fd5b50565b6000813590506122658161223f565b92915050565b6000806040838503121561228257612281611d2a565b5b600061229085828601611f80565b92505060206122a185828601612256565b9150509250929050565b600067ffffffffffffffff8211156122c6576122c5612032565b5b6122cf82611e3e565b9050602081019050919050565b60006122ef6122ea846122ab565b612092565b90508281526020810184848401111561230b5761230a61202d565b5b6123168482856120de565b509392505050565b600082601f83011261233357612332612028565b5b81356123438482602086016122dc565b91505092915050565b6000806000806080858703121561236657612365611d2a565b5b600061237487828801611f80565b945050602061238587828801611f80565b935050604061239687828801611ecb565b925050606085013567ffffffffffffffff8111156123b7576123b6611d2f565b5b6123c38782880161231e565b91505092959194509250565b600080604083850312156123e6576123e5611d2a565b5b60006123f485828601611f80565b925050602061240585828601611f80565b9150509250929050565b7f4e487b7100000000000000000000000000000000000000000000000000000000600052602260045260246000fd5b6000600282049050600182168061245657607f821691505b6020821081141561246a5761246961240f565b5b50919050565b7f4552433732313a20617070726f76656420717565727920666f72206e6f6e657860008201527f697374656e7420746f6b656e0000000000000000000000000000000000000000602082015250565b60006124cc602c83611dfa565b91506124d782612470565b604082019050919050565b600060208201905081810360008301526124fb816124bf565b9050919050565b7f4552433732313a20617070726f76616c20746f2063757272656e74206f776e6560008201527f7200000000000000000000000000000000000000000000000000000000000000602082015250565b600061255e602183611dfa565b915061256982612502565b604082019050919050565b6000602082019050818103600083015261258d81612551565b9050919050565b7f4552433732313a20617070726f76652063616c6c6572206973206e6f74206f7760008201527f6e6572206e6f7220617070726f76656420666f7220616c6c0000000000000000602082015250565b60006125f0603883611dfa565b91506125fb82612594565b604082019050919050565b6000602082019050818103600083015261261f816125e3565b9050919050565b7f4552433732313a207472616e736665722063616c6c6572206973206e6f74206f60008201527f776e6572206e6f7220617070726f766564000000000000000000000000000000602082015250565b6000612682603183611dfa565b915061268d82612626565b604082019050919050565b600060208201905081810360008301526126b181612675565b9050919050565b7f4f776e61626c653a2063616c6c6572206973206e6f7420746865206f776e6572600082015250565b60006126ee602083611dfa565b91506126f9826126b8565b602082019050919050565b6000602082019050818103600083015261271d816126e1565b9050919050565b600081905092915050565b600061273a82611def565b6127448185612724565b9350612754818560208601611e0b565b80840191505092915050565b600061276c828461272f565b915081905092915050565b7f457365204e465420796120657869737465210000000000000000000000000000600082015250565b60006127ad601283611dfa565b91506127b882612777565b602082019050919050565b600060208201905081810360008301526127dc816127a0565b9050919050565b7f4552433732313a206f776e657220717565727920666f72206e6f6e657869737460008201527f656e7420746f6b656e0000000000000000000000000000000000000000000000602082015250565b600061283f602983611dfa565b915061284a826127e3565b604082019050919050565b6000602082019050818103600083015261286e81612832565b9050919050565b7f4552433732313a2062616c616e636520717565727920666f7220746865207a6560008201527f726f206164647265737300000000000000000000000000000000000000000000602082015250565b60006128d1602a83611dfa565b91506128dc82612875565b604082019050919050565b60006020820190508181036000830152612900816128c4565b9050919050565b7f4552433732313a20617070726f766520746f2063616c6c657200000000000000600082015250565b600061293d601983611dfa565b915061294882612907565b602082019050919050565b6000602082019050818103600083015261296c81612930565b9050919050565b7f4f776e61626c653a206e6577206f776e657220697320746865207a65726f206160008201527f6464726573730000000000000000000000000000000000000000000000000000602082015250565b60006129cf602683611dfa565b91506129da82612973565b604082019050919050565b600060208201905081810360008301526129fe816129c2565b9050919050565b7f4552433732313a206f70657261746f7220717565727920666f72206e6f6e657860008201527f697374656e7420746f6b656e0000000000000000000000000000000000000000602082015250565b6000612a61602c83611dfa565b9150612a6c82612a05565b604082019050919050565b60006020820190508181036000830152612a9081612a54565b9050919050565b7f4552433732313a207472616e73666572206f6620746f6b656e2074686174206960008201527f73206e6f74206f776e0000000000000000000000000000000000000000000000602082015250565b6000612af3602983611dfa565b9150612afe82612a97565b604082019050919050565b60006020820190508181036000830152612b2281612ae6565b9050919050565b7f4552433732313a207472616e7366657220746f20746865207a65726f2061646460008201527f7265737300000000000000000000000000000000000000000000000000000000602082015250565b6000612b85602483611dfa565b9150612b9082612b29565b604082019050919050565b60006020820190508181036000830152612bb481612b78565b9050919050565b7f4e487b7100000000000000000000000000000000000000000000000000000000600052601160045260246000fd5b6000612bf582611eaa565b9150612c0083611eaa565b925082821015612c1357612c12612bbb565b5b828203905092915050565b6000612c2982611eaa565b9150612c3483611eaa565b9250827fffffffffffffffffffffffffffffffffffffffffffffffffffffffffffffffff03821115612c6957612c68612bbb565b5b828201905092915050565b7f45524337323155524953746f726167653a2055524920736574206f66206e6f6e60008201527f6578697374656e7420746f6b656e000000000000000000000000000000000000602082015250565b6000612cd0602e83611dfa565b9150612cdb82612c74565b604082019050919050565b60006020820190508181036000830152612cff81612cc3565b9050919050565b7f4552433732313a207472616e7366657220746f206e6f6e20455243373231526560008201527f63656976657220696d706c656d656e7465720000000000000000000000000000602082015250565b6000612d62603283611dfa565b9150612d6d82612d06565b604082019050919050565b60006020820190508181036000830152612d9181612d55565b9050919050565b7f45524337323155524953746f726167653a2055524920717565727920666f722060008201527f6e6f6e6578697374656e7420746f6b656e000000000000000000000000000000602082015250565b6000612df4603183611dfa565b9150612dff82612d98565b604082019050919050565b60006020820190508181036000830152612e2381612de7565b9050919050565b6000612e36828561272f565b9150612e42828461272f565b91508190509392505050565b600081519050919050565b600082825260208201905092915050565b6000612e7582612e4e565b612e7f8185612e59565b9350612e8f818560208601611e0b565b612e9881611e3e565b840191505092915050565b6000608082019050612eb86000830187611f3f565b612ec56020830186611f3f565b612ed260408301856121e8565b8181036060830152612ee48184612e6a565b905095945050505050565b600081519050612efe81611d60565b92915050565b600060208284031215612f1a57612f19611d2a565b5b6000612f2884828501612eef565b91505092915050565b7f4552433732314d657461646174613a2055524920717565727920666f72206e6f60008201527f6e6578697374656e7420746f6b656e0000000000000000000000000000000000602082015250565b6000612f8d602f83611dfa565b9150612f9882612f31565b604082019050919050565b60006020820190508181036000830152612fbc81612f80565b9050919050565b7f4552433732313a206d696e7420746f20746865207a65726f2061646472657373600082015250565b6000612ff9602083611dfa565b915061300482612fc3565b602082019050919050565b6000602082019050818103600083015261302881612fec565b9050919050565b7f4552433732313a20746f6b656e20616c7265616479206d696e74656400000000600082015250565b6000613065601c83611dfa565b91506130708261302f565b602082019050919050565b6000602082019050818103600083015261309481613058565b9050919050565b60006130a682611eaa565b91507fffffffffffffffffffffffffffffffffffffffffffffffffffffffffffffffff8214156130d9576130d8612bbb565b5b600182019050919050565b7f4e487b7100000000000000000000000000000000000000000000000000000000600052601260045260246000fd5b600061311e82611eaa565b915061312983611eaa565b925082613139576131386130e4565b5b828204905092915050565b600061314f82611eaa565b915061315a83611eaa565b92508261316a576131696130e4565b5b828206905092915050565b7f4e487b7100000000000000000000000000000000000000000000000000000000600052603260045260246000fdfea2646970667358221220d5f31006c3981d95777256374203aec3ec48d3d88875899439780cf16a8de5e864736f6c63430008090033",
  "immutableReferences": {},
  "source": "// SPDX-License-Identifier: GPL-3.0\npragma solidity >=0.7.0 <0.9.0;\nimport \"@openzeppelin/contracts/token/ERC721/ERC721.sol\";\nimport \"@openzeppelin/contracts/token/ERC721/extensions/ERC721URIStorage.sol\";\nimport \"@openzeppelin/contracts/access/Ownable.sol\";\nimport \"@openzeppelin/contracts/utils/Counters.sol\";\nimport \"hardhat/console.sol\";\n\n/*\n* Subasta v1.0\n* Sistema de subastas para aprender Smart Contracts con Solidity\n* By @hv4ld3z\n* Este contrato permite crear un NFT \n*/\n\ncontract NftSubastable is ERC721, ERC721URIStorage, Ownable {\n    using Counters for Counters.Counter;\n    Counters.Counter private _tokenIds;\n    mapping(string => uint8) hashes;\n\n\n    constructor() ERC721(\"NftSubastable\", \"NFTSub\") {  }\n\n    function CrearNFT(address owner, string memory hash, string memory metadata) public  onlyOwner returns (uint256)\n    {\n        require(hashes[hash] != 1, \"Ese NFT ya existe!\");\n        hashes[hash] = 1;\n        _tokenIds.increment();\n        uint256 nuevoItemId = _tokenIds.current();\n        _safeMint(owner, nuevoItemId);\n        _setTokenURI(nuevoItemId, metadata);\n        return nuevoItemId;\n    }\n    \n    \n    // Solidity obliga a sobre-escribir estas funciones.\n    function _burn(uint256 tokenId) internal override(ERC721, ERC721URIStorage) {\n        super._burn(tokenId);\n    }\n    \n    function tokenURI(uint256 tokenId) public view  override(ERC721, ERC721URIStorage)  returns (string memory)\n    {\n        return super.tokenURI(tokenId);\n    }\n}",
  "sourcePath": "/Users/hvaldez/Documents/git/auction-smart-contract/contracts/NftSubastable.sol",
  "compiler": {
    "name": "solc",
    "version": "0.8.9+commit.e5eed63a.Emscripten.clang"
  },
  "schemaVersion": "3.4.3",
  "updatedAt": "2021-10-24T15:10:44.179Z",
  "networkType": "ethereum",
  "devdoc": {
    "kind": "dev",
    "methods": {
      "approve(address,uint256)": {
        "details": "See {IERC721-approve}."
      },
      "balanceOf(address)": {
        "details": "See {IERC721-balanceOf}."
      },
      "getApproved(uint256)": {
        "details": "See {IERC721-getApproved}."
      },
      "isApprovedForAll(address,address)": {
        "details": "See {IERC721-isApprovedForAll}."
      },
      "name()": {
        "details": "See {IERC721Metadata-name}."
      },
      "owner()": {
        "details": "Returns the address of the current owner."
      },
      "ownerOf(uint256)": {
        "details": "See {IERC721-ownerOf}."
      },
      "renounceOwnership()": {
        "details": "Leaves the contract without owner. It will not be possible to call `onlyOwner` functions anymore. Can only be called by the current owner. NOTE: Renouncing ownership will leave the contract without an owner, thereby removing any functionality that is only available to the owner."
      },
      "safeTransferFrom(address,address,uint256)": {
        "details": "See {IERC721-safeTransferFrom}."
      },
      "safeTransferFrom(address,address,uint256,bytes)": {
        "details": "See {IERC721-safeTransferFrom}."
      },
      "setApprovalForAll(address,bool)": {
        "details": "See {IERC721-setApprovalForAll}."
      },
      "supportsInterface(bytes4)": {
        "details": "See {IERC165-supportsInterface}."
      },
      "symbol()": {
        "details": "See {IERC721Metadata-symbol}."
      },
      "transferFrom(address,address,uint256)": {
        "details": "See {IERC721-transferFrom}."
      },
      "transferOwnership(address)": {
        "details": "Transfers ownership of the contract to a new account (`newOwner`). Can only be called by the current owner."
      }
    },
    "version": 1
  },
  "userdoc": {
    "kind": "user",
    "methods": {},
    "version": 1
  }
}