{
  "contractName": "Subasta",
  "abi": [
    {
      "inputs": [
        {
          "internalType": "uint256",
          "name": "_duracion",
          "type": "uint256"
        },
        {
          "internalType": "string",
          "name": "_articulo",
          "type": "string"
        }
      ],
      "stateMutability": "nonpayable",
      "type": "constructor"
    },
    {
      "anonymous": false,
      "inputs": [
        {
          "indexed": true,
          "internalType": "address",
          "name": "oferenteGanador",
          "type": "address"
        },
        {
          "indexed": false,
          "internalType": "uint256",
          "name": "ofertaGanadora",
          "type": "uint256"
        }
      ],
      "name": "OfertaRealizadaEvent",
      "type": "event"
    },
    {
      "anonymous": false,
      "inputs": [
        {
          "indexed": false,
          "internalType": "address",
          "name": "solicitante",
          "type": "address"
        },
        {
          "indexed": false,
          "internalType": "uint256",
          "name": "monto",
          "type": "uint256"
        }
      ],
      "name": "RetiroRealizadoEvent",
      "type": "event"
    },
    {
      "anonymous": false,
      "inputs": [
        {
          "indexed": false,
          "internalType": "string",
          "name": "mensaje",
          "type": "string"
        },
        {
          "indexed": false,
          "internalType": "uint256",
          "name": "hora",
          "type": "uint256"
        }
      ],
      "name": "SubastaCanceladaEvent",
      "type": "event"
    },
    {
      "inputs": [],
      "name": "Estado",
      "outputs": [
        {
          "internalType": "enum Subasta.estado",
          "name": "",
          "type": "uint8"
        }
      ],
      "stateMutability": "view",
      "type": "function",
      "constant": true
    },
    {
      "inputs": [],
      "name": "miNft",
      "outputs": [
        {
          "internalType": "string",
          "name": "Nombre",
          "type": "string"
        }
      ],
      "stateMutability": "view",
      "type": "function",
      "constant": true
    },
    {
      "inputs": [],
      "name": "oferenteGanador",
      "outputs": [
        {
          "internalType": "address",
          "name": "",
          "type": "address"
        }
      ],
      "stateMutability": "view",
      "type": "function",
      "constant": true
    },
    {
      "inputs": [],
      "name": "ofertaGanadora",
      "outputs": [
        {
          "internalType": "uint256",
          "name": "",
          "type": "uint256"
        }
      ],
      "stateMutability": "view",
      "type": "function",
      "constant": true
    },
    {
      "inputs": [
        {
          "internalType": "address",
          "name": "",
          "type": "address"
        }
      ],
      "name": "ofertas",
      "outputs": [
        {
          "internalType": "uint256",
          "name": "",
          "type": "uint256"
        }
      ],
      "stateMutability": "view",
      "type": "function",
      "constant": true
    },
    {
      "inputs": [],
      "name": "subasta_finaliza",
      "outputs": [
        {
          "internalType": "uint256",
          "name": "",
          "type": "uint256"
        }
      ],
      "stateMutability": "view",
      "type": "function",
      "constant": true
    },
    {
      "inputs": [],
      "name": "subasta_inicio",
      "outputs": [
        {
          "internalType": "uint256",
          "name": "",
          "type": "uint256"
        }
      ],
      "stateMutability": "view",
      "type": "function",
      "constant": true
    },
    {
      "inputs": [],
      "name": "version",
      "outputs": [
        {
          "internalType": "string",
          "name": "",
          "type": "string"
        }
      ],
      "stateMutability": "view",
      "type": "function",
      "constant": true
    },
    {
      "inputs": [],
      "name": "ofertar",
      "outputs": [
        {
          "internalType": "bool",
          "name": "",
          "type": "bool"
        }
      ],
      "stateMutability": "payable",
      "type": "function",
      "payable": true
    },
    {
      "inputs": [],
      "name": "cancelarSubasta",
      "outputs": [
        {
          "internalType": "bool",
          "name": "",
          "type": "bool"
        }
      ],
      "stateMutability": "nonpayable",
      "type": "function"
    },
    {
      "inputs": [],
      "name": "retirar",
      "outputs": [
        {
          "internalType": "bool",
          "name": "",
          "type": "bool"
        }
      ],
      "stateMutability": "nonpayable",
      "type": "function"
    }
  ],
  "bytecode": "0x60806040526040518060400160405280600581526020017f312e302e320000000000000000000000000000000000000000000000000000008152506000908051906020019062000051929190620002a0565b503480156200005f57600080fd5b5060405162001a0638038062001a06833981810160405281019062000085919062000528565b33600160006101000a81548173ffffffffffffffffffffffffffffffffffffffff021916908373ffffffffffffffffffffffffffffffffffffffff1602179055506001600960006101000a81548160ff02191690836001811115620000ef57620000ee6200058e565b5b021790555080600660000190805190602001906200010f929190620002a0565b504260028190555081600254620001279190620005ec565b6003819055506200017b6040518060400160405280600e81526020017f737562617374615f696e6963696f000000000000000000000000000000000000815250600254620001d160201b62000a611760201c565b620001c96040518060400160405280601081526020017f737562617374615f66696e616c697a6100000000000000000000000000000000815250600354620001d160201b62000a611760201c565b505062000750565b620002738282604051602401620001ea929190620006b7565b6040516020818303038152906040527f9710a9d0000000000000000000000000000000000000000000000000000000007bffffffffffffffffffffffffffffffffffffffffffffffffffffffff19166020820180517bffffffffffffffffffffffffffffffffffffffffffffffffffffffff83818316178352505050506200027760201b60201c565b5050565b60008151905060006a636f6e736f6c652e6c6f679050602083016000808483855afa5050505050565b828054620002ae906200071a565b90600052602060002090601f016020900481019282620002d257600085556200031e565b82601f10620002ed57805160ff19168380011785556200031e565b828001600101855582156200031e579182015b828111156200031d57825182559160200191906001019062000300565b5b5090506200032d919062000331565b5090565b5b808211156200034c57600081600090555060010162000332565b5090565b6000604051905090565b600080fd5b600080fd5b6000819050919050565b620003798162000364565b81146200038557600080fd5b50565b60008151905062000399816200036e565b92915050565b600080fd5b600080fd5b6000601f19601f8301169050919050565b7f4e487b7100000000000000000000000000000000000000000000000000000000600052604160045260246000fd5b620003f482620003a9565b810181811067ffffffffffffffff82111715620004165762000415620003ba565b5b80604052505050565b60006200042b62000350565b9050620004398282620003e9565b919050565b600067ffffffffffffffff8211156200045c576200045b620003ba565b5b6200046782620003a9565b9050602081019050919050565b60005b838110156200049457808201518184015260208101905062000477565b83811115620004a4576000848401525b50505050565b6000620004c1620004bb846200043e565b6200041f565b905082815260208101848484011115620004e057620004df620003a4565b5b620004ed84828562000474565b509392505050565b600082601f8301126200050d576200050c6200039f565b5b81516200051f848260208601620004aa565b91505092915050565b600080604083850312156200054257620005416200035a565b5b6000620005528582860162000388565b925050602083015167ffffffffffffffff8111156200057657620005756200035f565b5b6200058485828601620004f5565b9150509250929050565b7f4e487b7100000000000000000000000000000000000000000000000000000000600052602160045260246000fd5b7f4e487b7100000000000000000000000000000000000000000000000000000000600052601160045260246000fd5b6000620005f98262000364565b9150620006068362000364565b9250827fffffffffffffffffffffffffffffffffffffffffffffffffffffffffffffffff038211156200063e576200063d620005bd565b5b828201905092915050565b600081519050919050565b600082825260208201905092915050565b6000620006728262000649565b6200067e818562000654565b93506200069081856020860162000474565b6200069b81620003a9565b840191505092915050565b620006b18162000364565b82525050565b60006040820190508181036000830152620006d3818562000665565b9050620006e46020830184620006a6565b9392505050565b7f4e487b7100000000000000000000000000000000000000000000000000000000600052602260045260246000fd5b600060028204905060018216806200073357607f821691505b602082108114156200074a5762000749620006eb565b5b50919050565b6112a680620007606000396000f3fe60806040526004361061009c5760003560e01c8063ac9e477e11610064578063ac9e477e1461016b578063b46e8d1a14610196578063c9201330146101c1578063e5c82b0e146101ec578063ef871c2d14610217578063fb5dffb4146102545761009c565b806313a83eaf146100a15780633ec059d7146100cc5780634735a442146100ea57806354fd4d50146101155780638be216df14610140575b600080fd5b3480156100ad57600080fd5b506100b661027f565b6040516100c39190610b3f565b60405180910390f35b6100d4610285565b6040516100e19190610b75565b60405180910390f35b3480156100f657600080fd5b506100ff6105ff565b60405161010c9190610b75565b60405180910390f35b34801561012157600080fd5b5061012a6107e7565b6040516101379190610c29565b60405180910390f35b34801561014c57600080fd5b50610155610875565b6040516101629190610b3f565b60405180910390f35b34801561017757600080fd5b5061018061087b565b60405161018d9190610b3f565b60405180910390f35b3480156101a257600080fd5b506101ab610881565b6040516101b89190610cc2565b60405180910390f35b3480156101cd57600080fd5b506101d6610894565b6040516101e39190610c29565b60405180910390f35b3480156101f857600080fd5b50610201610928565b60405161020e9190610b75565b60405180910390f35b34801561022357600080fd5b5061023e60048036038101906102399190610d40565b610a23565b60405161024b9190610b3f565b60405180910390f35b34801561026057600080fd5b50610269610a3b565b6040516102769190610d7c565b60405180910390f35b60045481565b600060035442111580156102cb57506001808111156102a7576102a6610c4b565b5b600960009054906101000a900460ff1660018111156102c9576102c8610c4b565b5b145b61030a576040517f08c379a000000000000000000000000000000000000000000000000000000000815260040161030190610de3565b60405180910390fd5b6000341161034d576040517f08c379a000000000000000000000000000000000000000000000000000000000815260040161034490610e4f565b60405180910390fd5b60045434600860003373ffffffffffffffffffffffffffffffffffffffff1673ffffffffffffffffffffffffffffffffffffffff1681526020019081526020016000205461039b9190610e9e565b116103db576040517f08c379a00000000000000000000000000000000000000000000000000000000081526004016103d290610f66565b60405180910390fd5b33600560006101000a81548173ffffffffffffffffffffffffffffffffffffffff021916908373ffffffffffffffffffffffffffffffffffffffff160217905550346004819055506007339080600181540180825580915050600190039060005260206000200160009091909190916101000a81548173ffffffffffffffffffffffffffffffffffffffff021916908373ffffffffffffffffffffffffffffffffffffffff16021790555034600860003373ffffffffffffffffffffffffffffffffffffffff1673ffffffffffffffffffffffffffffffffffffffff168152602001908152602001600020546104d19190610e9e565b600860003373ffffffffffffffffffffffffffffffffffffffff1673ffffffffffffffffffffffffffffffffffffffff16815260200190815260200160002081905550600560009054906101000a900473ffffffffffffffffffffffffffffffffffffffff1673ffffffffffffffffffffffffffffffffffffffff167f7897558b8ff3de4ccf9ec708baab64f1e689331004bfc520f7da281f3d99410d60045460405161057e9190610b3f565b60405180910390a2600560009054906101000a900473ffffffffffffffffffffffffffffffffffffffff1673ffffffffffffffffffffffffffffffffffffffff167f7897558b8ff3de4ccf9ec708baab64f1e689331004bfc520f7da281f3d99410d6004546040516105f09190610b3f565b60405180910390a26001905090565b60006003544211610645576040517f08c379a000000000000000000000000000000000000000000000000000000000815260040161063c90610ff8565b60405180910390fd5b600560009054906101000a900473ffffffffffffffffffffffffffffffffffffffff1673ffffffffffffffffffffffffffffffffffffffff163373ffffffffffffffffffffffffffffffffffffffff1614156106d6576040517f08c379a00000000000000000000000000000000000000000000000000000000081526004016106cd9061108a565b60405180910390fd5b6000600860003373ffffffffffffffffffffffffffffffffffffffff1673ffffffffffffffffffffffffffffffffffffffff1681526020019081526020016000205490506000600860003373ffffffffffffffffffffffffffffffffffffffff1673ffffffffffffffffffffffffffffffffffffffff168152602001908152602001600020819055503373ffffffffffffffffffffffffffffffffffffffff166108fc829081150290604051600060405180830381858888f193505050501580156107a5573d6000803e3d6000fd5b507f45cd5f502708032b5bc87ef6f218bbaa3291e9462e808fc53b949c55210e1b7633826040516107d79291906110aa565b60405180910390a1600191505090565b600080546107f490611102565b80601f016020809104026020016040519081016040528092919081815260200182805461082090611102565b801561086d5780601f106108425761010080835404028352916020019161086d565b820191906000526020600020905b81548152906001019060200180831161085057829003601f168201915b505050505081565b60025481565b60035481565b600960009054906101000a900460ff1681565b60068060000180546108a590611102565b80601f01602080910402602001604051908101604052809291908181526020018280546108d190611102565b801561091e5780601f106108f35761010080835404028352916020019161091e565b820191906000526020600020905b81548152906001019060200180831161090157829003601f168201915b5050505050905081565b6000600160009054906101000a900473ffffffffffffffffffffffffffffffffffffffff1673ffffffffffffffffffffffffffffffffffffffff163373ffffffffffffffffffffffffffffffffffffffff16146109ba576040517f08c379a00000000000000000000000000000000000000000000000000000000081526004016109b1906111a6565b60405180910390fd5b6000600960006101000a81548160ff021916908360018111156109e0576109df610c4b565b5b02179055507f48e49d0443afcea1a4244770652bcd3dde98768185012dc1a069e31e3541c96942604051610a149190611212565b60405180910390a16001905090565b60086020528060005260406000206000915090505481565b600560009054906101000a900473ffffffffffffffffffffffffffffffffffffffff1681565b610af98282604051602401610a77929190611240565b6040516020818303038152906040527f9710a9d0000000000000000000000000000000000000000000000000000000007bffffffffffffffffffffffffffffffffffffffffffffffffffffffff19166020820180517bffffffffffffffffffffffffffffffffffffffffffffffffffffffff8381831617835250505050610afd565b5050565b60008151905060006a636f6e736f6c652e6c6f679050602083016000808483855afa5050505050565b6000819050919050565b610b3981610b26565b82525050565b6000602082019050610b546000830184610b30565b92915050565b60008115159050919050565b610b6f81610b5a565b82525050565b6000602082019050610b8a6000830184610b66565b92915050565b600081519050919050565b600082825260208201905092915050565b60005b83811015610bca578082015181840152602081019050610baf565b83811115610bd9576000848401525b50505050565b6000601f19601f8301169050919050565b6000610bfb82610b90565b610c058185610b9b565b9350610c15818560208601610bac565b610c1e81610bdf565b840191505092915050565b60006020820190508181036000830152610c438184610bf0565b905092915050565b7f4e487b7100000000000000000000000000000000000000000000000000000000600052602160045260246000fd5b60028110610c8b57610c8a610c4b565b5b50565b6000819050610c9c82610c7a565b919050565b6000610cac82610c8e565b9050919050565b610cbc81610ca1565b82525050565b6000602082019050610cd76000830184610cb3565b92915050565b600080fd5b600073ffffffffffffffffffffffffffffffffffffffff82169050919050565b6000610d0d82610ce2565b9050919050565b610d1d81610d02565b8114610d2857600080fd5b50565b600081359050610d3a81610d14565b92915050565b600060208284031215610d5657610d55610cdd565b5b6000610d6484828501610d2b565b91505092915050565b610d7681610d02565b82525050565b6000602082019050610d916000830184610d6d565b92915050565b7f4c612073756261737461206e6f206573746120656e20637572736f0000000000600082015250565b6000610dcd601b83610b9b565b9150610dd882610d97565b602082019050919050565b60006020820190508181036000830152610dfc81610dc0565b9050919050565b7f4c61206f6665727461206e6f2070756564652073657220302e00000000000000600082015250565b6000610e39601983610b9b565b9150610e4482610e03565b602082019050919050565b60006020820190508181036000830152610e6881610e2c565b9050919050565b7f4e487b7100000000000000000000000000000000000000000000000000000000600052601160045260246000fd5b6000610ea982610b26565b9150610eb483610b26565b9250827fffffffffffffffffffffffffffffffffffffffffffffffffffffffffffffffff03821115610ee957610ee8610e6f565b5b828201905092915050565b7f4e6f207365207075656465206f6665727461722c2064656265207265616c697a60008201527f617220756e61206f6665727461206d617320616c746100000000000000000000602082015250565b6000610f50603683610b9b565b9150610f5b82610ef4565b604082019050919050565b60006020820190508181036000830152610f7f81610f43565b9050919050565b7f4e6f20736520707565646520726574697261722c206c6120737562617374612060008201527f61756e206573746120656e20637572736f2e0000000000000000000000000000602082015250565b6000610fe2603283610b9b565b9150610fed82610f86565b604082019050919050565b6000602082019050818103600083015261101181610fd5565b9050919050565b7f5564732068612067616e61646f206c6120737562617374612c206e6f2070756560008201527f646520726574697261722073752064696e65726f2e0000000000000000000000602082015250565b6000611074603583610b9b565b915061107f82611018565b604082019050919050565b600060208201905081810360008301526110a381611067565b9050919050565b60006040820190506110bf6000830185610d6d565b6110cc6020830184610b30565b9392505050565b7f4e487b7100000000000000000000000000000000000000000000000000000000600052602260045260246000fd5b6000600282049050600182168061111a57607f821691505b6020821081141561112e5761112d6110d3565b5b50919050565b7f536f6c6f20656c206f776e65722070756564652066696e616c697a6172206c6160008201527f2073756261737461000000000000000000000000000000000000000000000000602082015250565b6000611190602883610b9b565b915061119b82611134565b604082019050919050565b600060208201905081810360008301526111bf81611183565b9050919050565b7f537562617374612043616e63656c616461000000000000000000000000000000600082015250565b60006111fc601183610b9b565b9150611207826111c6565b602082019050919050565b6000604082019050818103600083015261122b816111ef565b905061123a6020830184610b30565b92915050565b6000604082019050818103600083015261125a8185610bf0565b90506112696020830184610b30565b939250505056fea264697066735822122035306fe2235d312066fd44672239590eb3e5f944a43f5f2df892f3c55dac686764736f6c63430008090033",
  "immutableReferences": {},
  "source": "// SPDX-License-Identifier: GPL-3.0\npragma solidity >=0.7.0 <0.9.0;\n\nimport \"hardhat/console.sol\";\n\n/*\n* Subasta v1.0\n* Sistema de subastas para aprender Smart Contracts con Solidity\n* By @hv4ld3z\n* Este contrato permite simular una subasta\n*/\ncontract Subasta {\n\n    string public version = \"1.0.2\";\n    address internal subasta_owner;\n    uint256 public subasta_inicio;\n    uint256 public subasta_finaliza;\n    uint256 public ofertaGanadora;\n    address public oferenteGanador;\n    \n    enum estado { CANCELADA, INICIADA }\n    \n    struct articulo {\n        string Nombre; \n    }\n\n    articulo public miNft; \n\n    address[] oferentes;\n    mapping(address => uint) public ofertas; \n    estado public Estado;\n\n    modifier subasta_en_curso() { \n        require(block.timestamp <= subasta_finaliza && Estado == estado.INICIADA, \"La subasta no esta en curso\");\n        _;\n    }\n    \n    modifier solo_owner() { \n        require(msg.sender == subasta_owner,  \"Solo el owner puede finalizar la subasta\");\n        _;\n    }\n\n   \n    event OfertaRealizadaEvent(address indexed oferenteGanador, uint256 ofertaGanadora); \n    event RetiroRealizadoEvent(address solicitante, uint256 monto);\n    event SubastaCanceladaEvent(string mensaje, uint256 hora);\n    \n    constructor(uint  _duracion,  string memory  _articulo) {\n        subasta_owner = msg.sender; \n        Estado = estado.INICIADA;\n        miNft.Nombre = _articulo;\n        subasta_inicio = block.timestamp;\n        subasta_finaliza = subasta_inicio + _duracion;\n        \n        console.log(\"subasta_inicio\", subasta_inicio);\n        console.log(\"subasta_finaliza\", subasta_finaliza);\n\n    }\n    \n    function ofertar() public payable subasta_en_curso returns (bool){ \n        require(msg.value > 0, \"La oferta no puede ser 0.\");\n        require(ofertas[msg.sender] + msg.value > ofertaGanadora, \"No se puede ofertar, debe realizar una oferta mas alta\");\n        oferenteGanador = msg.sender; \n        ofertaGanadora = msg.value; \n        oferentes.push(msg.sender);\n        ofertas[msg.sender] = ofertas[msg.sender] + msg.value; emit OfertaRealizadaEvent(oferenteGanador, ofertaGanadora);\n        emit OfertaRealizadaEvent(oferenteGanador, ofertaGanadora); \n        return true;\n    }\n    \n    function cancelarSubasta() public solo_owner returns (bool) {\n        Estado = estado.CANCELADA;\n        emit SubastaCanceladaEvent(\"Subasta Cancelada\", block.timestamp);\n        return true;\n    }\n    \n    function retirar() public returns (bool) {\n        require(block.timestamp > subasta_finaliza, \"No se puede retirar, la subasta aun esta en curso.\"); \n        require(msg.sender != oferenteGanador, \"Uds ha ganado la subasta, no puede retirar su dinero.\"); \n        \n        uint monto = ofertas[msg.sender];\n        ofertas[msg.sender] = 0;\n        payable(msg.sender).transfer(monto); \n        emit RetiroRealizadoEvent(msg.sender, monto);\n        return true;\n    }\n\n\n}\n",
  "sourcePath": "/Users/hvaldez/Documents/git/auction-smart-contract/contracts/Subasta.sol",
  "compiler": {
    "name": "solc",
    "version": "0.8.9+commit.e5eed63a.Emscripten.clang"
  },
  "schemaVersion": "3.4.3",
  "updatedAt": "2021-10-24T15:10:43.554Z",
  "networkType": "ethereum",
  "devdoc": {
    "kind": "dev",
    "methods": {},
    "version": 1
  },
  "userdoc": {
    "kind": "user",
    "methods": {},
    "version": 1
  }
}